:030000000207559F
:0C075500787FE4F6D8FD75812002079C37
:1009C300C0F9A4B0999282F88090119382C6446CC6
:1009D30028391133226644CC8899119988CC44660E
:0209E3002233BD
:10095000C102C103C104C105C10181000181A50318
:1009600081A40381030081010081020081A2008132
:0A097000A300811900811800C100E6
:0E0AE200EF1392E8EFA2E192A0A2E292A72207
:100A990078A3E204F2E2FE24A6F8EFF274CE2EF86F
:030AA900EDF22249
:060B080078A3E214F222C2
:10097B007818E2FE25E02404F8EFF2EE25E02405DA
:10098B00F8EDF2EE2401FFE433FE7C007D0A120841
:06099B00407818EDF22285
:100A6F007819E22401FFE433FE7C007D0A1208406E
:050A7F007819EDF222E0
:100A5600785A7401F2E408F208F20874FFF208F218
:090A6600E408F208F20804F2228F
:0B09E500EA9009CD93F5907F507E0052
:1009F000EF1F70011E144E6007007C027DC780F05F
:040A0000DDFEDCFC3F
:010A040022CF
:100AAC00D2AFD2AD75CBE475CDE475CAA875CCA820
:030ABC00D2CA2279
:100ABF00C2B77F107E271209F0D2B77F107E2702B0
:020ACF0009F02C
:0C0AF000C2EBD2EAEF9009C393F580221C
:0C0AFC00D2EBC2EAEF9009C393F5802210
:1007E1007FDC7E051209F0E4FBE4FA1209E50AEA6E
:1007F100B408F80BEBB468F11200037802E2FF18B9
:10080100E275F008A4241A2FF8C000E2FEC0061217
:10081100002ED0E05FD000F27802E2FF18E275F01E
:1008210008A4241A2FF8C000E2FEC00612002ED040
:0F083100E05FD000F2120A847FDC7E050209F03E
:100A0500E4FBE4FA1209E50AEAB408F80BEBB4686A
:0B0A1500F11200037FDC7E050209F0F7
:1008DF007FE87E031209F0C2CAE4FBE4FAEA90094A
:1008EF00DD93F5907F147E001209F00AEAB408ED4B
:1008FF000BEBB432E678A5E22403540318F208F2A6
:09090F00D2CA7FE87E030209F060
:100918007FE87E031209F0C2CAE4FBE4FAEA900910
:10092800D593F5907F147E001209F00AEAB408ED19
:100938000BEBB432E678A5E204540318F208F2D2BD
:08094800CA7FE87E030209F0FA
:100A2000E4FFE4FEEF75F008A4241A2EF874FFF238
:0A0A30000EEEB408EF0FEFB408E873
:010A3A002299
:100A3B00E4FFE4FEEF75F008A424622EF87446F28E
:0A0A4B000EEEB408EF0FEFB408E858
:010A5500227E
:10002E0078A4E21470030200C314700302013C149E
:10003E0070030201AA2403600302021030020B3087
:10004E0004083003057F0D02021020020B30040855
:10005E003003057F0502021020020B300408200336
:10006E00057F0402021020020B2004083003057FD6
:10007E000102021030020B2004083003057F090232
:10008E00021030020B3004082003057F0C02021010
:10009E0030020B2004082003057F080202103002F4
:1000AE000302021030040302021030030302021096
:1000BE00E4FF02021030020B3004083003057F0EFD
:1000CE0002021020020B3004083003057F0A0202E0
:1000DE001020020B3004082003057F0202021020BC
:1000EE00020B2004083003057F0802021030020BB9
:1000FE002004083003057F0C02021030020B30047E
:10010E00082003057F0602021030020B200408208F
:10011E0003057F04020210300203020210300403B2
:10012E00020210300303020210E4FF02021030023A
:10013E000B3004083003057F0702021020020B303B
:10014E0004083003057F0502021020020B3004085C
:10015E002003057F0102021020020B200408300349
:10016E00057F0402021030020B2004083003057FC5
:10017E000402021030020B3004082003057F030234
:10018E00021030020A2004072003047F028073202D
:10019E00027020046D20036AE4FF806630020A308C
:1001AE0004073003047F0B805920020A3004073005
:1001BE0003047F0A804C20020A3004072003047FC8
:1001CE0008803F20020A2004073003047F02803299
:1001DE0030020A2004073003047F03802530020A10
:1001EE003004072003047F09801830020A20040718
:1001FE002003047F01800B20020820040520030247
:02020E00E4FF0B
:0102100022CB
:100A840078A4E2FF7802E2FE18E275F008A424627A
:050A94002EF8EFF22234
:1000030078A5E2FF70057801E204F2EFB401057808
:1000130002E214F2EFB402057801E214F2EFB40342
:07002300057802E204F2225D
:100AD1007802E2FF18E275F008A424622FF8E2FF21
:010AE10022F2
:10068C00EF75F008A4241A2DF8E2540FFFEB146058
:10069C003A14606114700302072B240360030207F1
:1006AC0054EF60216404601DEF64026018EF640174
:1006BC006013EF6403600EEF64066009EF6405607D
:1006CC0004EFB407037F01227F0022EF602164084E
:1006DC00601DEF64026018EF64016013EF64096041
:1006EC000EEF64036009EF640A6004EFB40B037F40
:1006FC0001227F0022EF60216408601DEF6404601A
:10070C0018EF64016013EF640C600EEF640960096C
:10071C00EF64056004EFB40D037F01227F0022EF2C
:10072C0060216408601DEF64046018EF64026013BC
:10073C00EF640C600EEF64066009EF640A6004EF6E
:08074C00B40E037F01227F00BF
:010754002282
:1003860078A4E214605E147003020435147003024C
:10039600047D240360030204CE2003157802E2FFE5
:1003A60018E275F008A424632FF8E2B446030204A9
:1003B600922002157802E2FF18E275F008A4246A7A
:1003C6002FF8E2B446030204AC2004157802E2FFDB
:1003D60018E275F008A424612FF8E2B4460302047B
:1003E600C37F00222003157802E2FF18E275F008A9
:1003F600A4246A2FF8E2B446030204922002157878
:1004060002E2FF18E275F008A424612FF8E2B44670
:10041600030204AC2004157802E2FF18E275F00826
:10042600A4245A2FF8E2B446030204C37F00222014
:1004360003147802E2FF18E275F008A424612FF88D
:10044600E2B4460280462002147802E2FF18E27502
:10045600F008A4245A2FF8E2B44602804920041476
:100466007802E2FF18E275F008A424632FF8E2B4DC
:10047600460280497F00222003177802E2FF18E235
:1004860075F008A4245A2FF8E2B446051208DF8056
:100496002F2002147802E2FF18E275F008A4246304
:1004A6002FF8E2B44602801820041B7802E2FF18F7
:1004B600E275F008A4246A2FF8E2B4460912091876
:0904C6001207E17F01227F0022F0
:10089500E478F6F2120386EF7036120AD178A5E2F3
:1008A500FEC3EF9E78F6F27005120918801378F6EC
:1008B500E2F9B401028013E9B4FF028004E9B4034C
:1008C500051209188007E9B4FD031208DF120A05AD
:0A08D5007801E270BF08E270BB2258
:0405BE00AB05AA07D8
:1005C200120A56120A3B781A740AF2AF0212097B17
:1005D20078A2E2FFEA75F008A424622BF8EFF27821
:1005E20018E2FF08E2FE6F700302068BEE25E0249C
:1005F20004F8E278F6F2FFEE25E02405F8E278F757
:10060200F2E2FEEF75F008A424622EF8E20478A26A
:10061200F2E4FAEA25E0245AF8E2FE78F6E2FF2E46
:1006220078F8F2EA25E0245BF8E2FE78F7E2FD2EA4
:10063200F9AB0212068C78F8E2FEC39400403EE960
:1006420094004039EE94085034E9C39408502EEFD8
:10065200602BE2FF75F008A4246229F8E2FE78A27A
:10066200E2FDEED39D4016AD0112097B78A2E2FFB6
:1006720078F8E275F008A4246229F8EFF20AEA6435
:09068200047090120A6F0205E1F8
:01068B00224C
:0702110078F6EFF208EDF2B0
:10021800E478FAF278F7E2FD18E2FF75F008A42412
:10022800622DF8E2F9120A99E47819F2E47818F2E2
:10023800E478F8F278F8E2FE25E0245AF8E2FD784E
:10024800F6E2FF2DFCEE25E0245BF8E2FE78F7E20B
:10025800FD2EFA08E2FB12068CECC39400404CEA2F
:100268009400404778F6E2FEECD39E503E08E2FE4A
:10027800EA9E5037EC75F008A424622AF8E2FEC31F
:10028800E99E78F9F264017022EF601FAF04AD02B5
:10029800120A9978F6EFF2AE0208EEF2E2FEEF7576
:1002A800F008A424622EF8E2F9800E78F8E204F24D
:1002B800E2C39404500302023C7818E204F2E2C359
:1002C800940850030202387819E204F2E2C3940851
:1002D800500302023478A3E2D39401500302038549
:1002E800E2FF24A6F8E278F8F274CE2FF8E2FF12C3
:1002F8000B0878A3E2FE24A6F8E278F6F274CE2E74
:10030800F8E2FE78F7F2D39F400778FA7403F28098
:100318002A78F8E2FE78F6E2FDC39E500778FA7470
:1003280002F2801778F7E2C39F500778FA7401F257
:100338008009EDD39E4004E478FAF278A4E2FF78CD
:10034800FAE2C39FFF18F2BF0102801378F9E2F9BD
:10035800B4FF02801FE9B403028019E9B4FD051255
:1003680009188013E9B402051208DF8007E9B4FE12
:0D037800061208DF1208DF120A050202DD7E
:010385002255
:1009A100120AAC120A20120A3B7FA07E861209F0BD
:1009B100120895E4FDFF1205BE7D077F07120211A3
:0209C10080FEB6
:03002B000204CFFD
:1004CF00C0E0C083C082C0D075D000C000C002C0E1
:0904DF0003C004C005C006C007FB
:1004E800C2CF7801E2FF120AF008E2FF120AFC20EC
:1004F80000107800E224FFFFE434FFFE120AE20253
:1005080005927800E2FFB4010B30A104C202807AA0
:10051800D2028076EFB4030B30A304C203806BD2FF
:10052800038067EFB4040B30A404C204805CD204D7
:100538008058EF6402702730A204C205804CD205AF
:100548007A007B00EB9009D593F5907F037E00122B
:1005580009F00BEBB408ED0AEAB404E6802C780045
:10056800E26405702530A504C201801ED2037A001A
:100578007B00EB9009DD93F5907F037E001209F074
:100588000BEBB408ED0AEAB404E63000057800E2A3
:0F05980004F27800E2D3940540037401F2B2003C
:1005A700D007D006D005D004D003D002D000D0D0D9
:0705B700D082D083D0E032B6
:100761000209A1E493A3F8E493A34003F68001F204
:1007710008DFF48029E493A3F85407240CC8C33399
:10078100C4540F4420C8834004F456800146F6DF68
:10079100E4800B0102040810204080900950E47E9F
:1007A100019360BCA3FF543F30E509541FFEE4935D
:1007B100A360010ECF54C025E060A840B8E493A324
:1007C100FAE493A3F8E493A3C8C582C8CAC583CA4F
:1007D100F0A3C8C582C8CAC583CADFE9DEE780BE07
:01097A00007C
:10084000BC000BBE0029EF8DF084FFADF022E4CC9C
:10085000F875F008EF2FFFEE33FEEC33FCEE9DEC65
:10086000984005FCEE9DFE0FD5F0E9E4CEFD22EDAB
:10087000F8F5F0EE8420D21CFEADF075F008EF2FF5
:10088000FFED33FD4007985006D5F0F222C398FDE6
:050890000FD5F0EA2283
:00000001FF
